S02200006370705F647269766572735F616E645F636F6E7461696E6572732E737265633A
S11300000C9436000C945E000C945E000C94B004C6
S11300100C94D9040C9402050C94390A0C945E00D7
S11300200C945E000C94BF090C945E000C9483093C
S11300300C945E000C945E000C945E000C945E00C4
S11300400C9447090C945E000C945E000C945E00C2
S11300500C945E000C945E000C945E000C945E00A4
S11300600C945E000C945E0027072E0711241FBE1B
S1130070CFEFD8E0DEBFCDBF11E0A0E0B1E0E4E413
S1130080F5E202C005900D92A436B107D9F721E03C
S1130090A4E6B1E001C01D92A73BB207E1F710E06E
S11300A0C5E3D0E004C02197FE010E94F60CC433DE
S11300B0D107C9F70E94B2060C9495120C94000063
S11300C0FC010FB6F8946091B3017091B401809172
S11300D0B5019091B6010FBE309721F06083718312
S11300E08283938308950F93863030F092EF980FB4
S11300F0963020F491E003C091E001C090E0992390
S1130100C9F1863008F08E50806480937C00EAE761
S1130110F0E0808180688083808180648083808136
S11301208160808380818260808380818460808319
S113013020917A0030E040E050E060E070E080E040
S113014090E004E00E94CE0C217030E040E050E0EA
S113015060E070E080E090E0A0E00E94EA0C41F3EF
S1130160EAE7F0E08081806180838091780090915B
S1130170790002C080E090E00F9108950F931F93DF
S1130180CF93DF938C01C0E0D0E0F80182859385A2
S1130190C817D90718F50E94690EF801628573859E
S11301A00E949F0C20853185FE01EE0FFF1FE20F98
S11301B0F31F40815181880F991FD901A80FB91FDE
S11301C02D913C9131832083F80120853185F901FB
S11301D0E80FF91F518340832196D7CFDF91CF9148
S11301E01F910F9108954F925F926F927F928F9219
S11301F09F92AF92BF92CF92DF92EF92FF920F93B2
S11302001F93CF93DF93CDB7DEB72A970FB6F89439
S1130210DEBF0FBECDBF9A87898749835A836B831C
S11302207C832801390120E030E0A90169817A81C9
S11302308B819C810E94D30A882309F447C0E985F5
S1130240FA8584849584A684B784A5019401698180
S11302507A818B819C810E94320CE985FA85208900
S11302603189428953892D833E834F8358870E9465
S1130270670A9B01AC01C301B2010E94660AA7018F
S113028096010E94320C6B017C012D813E814F81CD
S113029058850E94670AE985FA85608B718B828B89
S11302A0938BA701960169817A818B819C810E943D
S11302B0320C9B01AC01C501B4010E94670AE985B7
S11302C0FA85648775878687978706C0E985FA85E6
S11302D0408A518A628A738A2A960FB6F894DEBFDE
S11302E00FBECDBFDF91CF911F910F91FF90EF9083
S11302F0DF90CF90BF90AF909F908F907F906F9042
S11303005F904F9008954F925F926F927F928F9279
S11303109F92AF92BF92CF92DF92EF92FF920F9390
S11303201F93CF93DF9300D000D000D0CDB7DEB7BA
S11303309E838D832B0129833A834B835C83612CB9
S1130340712C6414750408F03FC08D819E810E9455
S1130350BE00AD81BE811896AD90BC9019971A96D7
S11303608D909C901B97880C991C8A0C9B1CA8143C
S1130370B90431F1F501819191915F01AD81BE81A3
S11303801496ED91FC911597880F991F880F991F6A
S1130390E80FF91F00811181228133814D915C9115
S11303A01197FA01E80FF91F40815181628173812D
S11303B0C980DA80EB80FC80CD010E94F300D7CFA6
S11303C0BFEF6B1A7B0ABDCF26960FB6F894DEBF3B
S11303D00FBECDBFDF91CF911F910F91FF90EF9092
S11303E0DF90CF90BF90AF909F908F907F906F9051
S11303F05F904F900895EF92FF920F931F93CF93C6
S1130400DF93EC018A819B810E811F818017910704
S1130410F9F08017910708F48C017801EE0CFF1CA9
S1130420EE0CFF1CB701888199810E94790E009718
S113043021F0998388831B830A83B7018C819D8172
S11304400E94790E009721F09D838C831F830E8375
S1130450DF91CF911F910F91FF90EF9008950F932B
S11304601F93CF93DF93EC010A811B81B801660FC0
S1130470771F888599850E94790E009721F09987C6
S113048088871B870A8780E090E02A853B8582174E
S1130490930758F4E885F9859C01220F331FE20F76
S11304A0F31F918380830196F0CFDF91CF911F9149
S11304B00F9108958091640181110AC080E090E059
S11304C00E946000CB010E946E0E81E08093640163
S11304D00895AF92BF92CF92DF92EF92FF920F9363
S11304E01F93CF93DF93EC017B018A016C01888118
S11304F099810E94940D198218821B821A82D70155
S11305001296AD90BC901397B501660F771F660FD6
S1130510771F80E090E00E94790E009731F0998374
S11305208883BB82AA8281E001C080E0882349F1EC
S113053080E090E0F601228133818217930708F569
S1130540D70112962D913C91139782179307C8F403
S11305509C01220F331F220F331F0190F081E02DE5
S1130560E20FF31F4D915C91DA01A20FB31F4D917D
S11305705D916D917C914083518362837383019675
S1130580D9CF7E01B4E0EB0EF11C8C819D810E94D9
S1130590940D1D821C821F821E82F801C280D380AA
S11305A0B601660F771F660F771F80E090E00E9408
S11305B0790E009749F09D838C83D7011396DC92C2
S11305C0CE92129781E001C080E0882349F180E057
S11305D090E0F701228133818217930708F5D8014F
S11305E012962D913C91139782179307C8F49C019E
S11305F0220F331F220F331F0190F081E02DE20FF1
S1130600F31F4D915C91DA01A20FB31F4D915D91DF
S11306106D917C9140835183628373830196D9CF1A
S1130620CE010E94FB01CE010E942F020E945A02B9
S1130630DF91CF911F910F91FF90EF90DF90CF90BA
S1130640BF90AF9008954F925F926F927F928F9276
S11306509F92AF92BF92CF92DF92EF92FF920F934D
S1130660CF93DF93FC010281A081B181CD91DC9114
S1130670A88121E030E040E050E060E070E080E0FC
S113068090E00E94B30C2095A223A8830281A0814C
S1130690B1811296CD91DC911397A88121E030E0CD
S11306A040E050E060E070E080E090E00E94B30C35
S11306B02095A223A8830281A5E6B1E04D905D9028
S11306C06D907C90139721E030E040E050E060E0D2
S11306D070E080E090E00E94B30C822E932EA42E52
S11306E0B52E80949094A094B09484209520A62054
S11306F0B7208D929D92AD92BC9213970281A081F6
S1130700B1811696CD91DC911797A88121E030E054
S113071040E050E060E070E080E090E00E94B30CC4
S11307202095A223A883118210821282DF91CF9197
S11307300F91FF90EF90DF90CF90BF90AF909F907C
S11307408F907F906F905F904F9008950F93CF9309
S1130750FC017894A081B18118960C91A8E6B0E0D0
S1130760CC9121E030E040E050E060E070E080E0D7
S113077090E00E94B30C2C2B2C9302810190F08109
S1130780E02D0680F781E02DA08121E030E040E0FB
S113079050E060E070E080E090E00E94B30C2A2B0F
S11307A02083CF910F910895DC01ED91FC9182811A
S11307B093818532910529F470936A0160936901EC
S11307C008958832910529F470936C0160936B014C
S11307D008958B9721F470936E0160936D010895D1
S11307E0683038F42AE031E0FC01318320836283ED
S11307F0089528EF260F263038F445E151E0FC0136
S113080051834083228308956E50663030F42AE089
S113081031E0FC0131832083628308950F936130BA
S11308207105B9F4DC0112960C911297ED91FC91CB
S11308300280F381E02DA08121E030E040E050E02F
S113084060E070E080E090E00E94B30C2A2B2083EB
S113085018C062307105A9F4FC0102810190F08195
S1130860E02D0190F081E02DA08121E030E040E016
S113087050E060E070E080E090E00E94B30C2A2B2E
S113088020830F9108954F925F926F927F928F927F
S11308909F92AF92BF92CF92DF92EF92FF920F930B
S11308A0CF93DC01E62F7A016431F0F46431B8F4BB
S11308B040916501509166016091670170916801F2
S11308C03A014B01242F372D482D592D60E070E05B
S11308D080E090E00E2F0E94CE0C217001C020E039
S11308E0211104C0C1E003C0C0E001C0C0E0CC23BA
S11308F039F167010E2F7D016E2FCD010E94F003A7
S1130900B601C7010E940E04E5E6F1E04080518083
S11309106280738021E030E040E050E060E070E00D
S113092080E090E00E94B30C822E932EA42EB52E6C
S113093084289528A628B72880829182A282B3822F
S11309408C2FCF910F91FF90EF90DF90CF90BF90BD
S1130950AF909F908F907F906F905F904F9008958D
S11309601F920F920FB60F9211242F933F934F9320
S11309705F936F937F938F939F93AF93BF93EF9303
S1130980FF93E0916901F0916A01309709F00995AC
S1130990FF91EF91BF91AF919F918F917F916F9153
S11309A05F914F913F912F910F900FBE0F901F9029
S11309B018951F920F920FB60F9211242F933F9305
S11309C04F935F936F937F938F939F93AF93BF9353
S11309D0EF93FF93E0916B01F0916C01309709F074
S11309E00995FF91EF91BF91AF919F918F917F9165
S11309F06F915F914F913F912F910F900FBE0F9088
S1130A001F9018951F920F920FB60F9211242F93D7
S1130A103F934F935F936F937F938F939F93AF9382
S1130A20BF93EF93FF93E0916D01F0916E013097C6
S1130A3009F00995FF91EF91BF91AF919F918F912B
S1130A407F916F915F914F913F912F910F900FBEC6
S1130A500F901F9018950F931F9386E791E00E94C3
S1130A60F8078823D9F086E791E00E94CD07E0914A
S1130A707F01F0918001018512857894E8E6F0E029
S1130A80A081112721E030E040E050E060E070E018
S1130A9080E090E00E94B30C2A2B20831F910F91D9
S1130AA008950F931F93CF93DF93CDB7DEB7C4564A
S1130AB0D1090FB6F894DEBF0FBECDBF82E00E940D
S1130AC07300BC0180E090E00E94800B20E030ECD9
S1130AD04FE754E40E94D80A20E030E040EA50E4B2
S1130AE00E94320C05E811E0F8012485358546851D
S1130AF057850E94320CF801208931894289538933
S1130B000E94670A20E030E040E05FE30E94670A49
S1130B100E944A0B8E010F5F1F4F24E6F8011192C9
S1130B202A95E9F79F938F937F936F938AE591E0DA
S1130B309F938F931F930F930E94480F63E671E076
S1130B40C8010E949B070FB6F894DEBF0FBECDBF4D
S1130B50CC59DF4F0FB6F894DEBF0FBECDBFDF9187
S1130B60CF911F910F9108958DE691E00E94F807AF
S1130B7081110E94510508950F931F93CF93DF9322
S1130B80CFE7D1E0E881F98101851285A8E6B0E0DC
S1130B90EC91112721E030E040E050E060E070E0AB
S1130BA080E090E00E94B30C2095E223EC9386E76A
S1130BB091E00E94A6070A81E881F9810480F58109
S1130BC0E02D208130E040E050E060E070E080E023
S1130BD090E00E94CE0C217030E040E050E060E0F4
S1130BE070E080E090E0A0E00E94EA0C31F00E9406
S1130BF051058DE691E00E94EB07DF91CF911F91A3
S1130C000F9108950F931F93CF93DF93EC018B0102
S1130C10019791F56F3F7F4F79F5E5E8F1E084E1C5
S1130C20DF011D928A95E9F7E2E8F1E01182108272
S1130C30128240E050E062E0CF010E944304EFE7FB
S1130C40F1E011821082128241E050E06DE0CF01A8
S1130C500E94430420E04CE251E060E070E086E74B
S1130C6091E00E94DA0820E040E65AEE61E070E08C
S1130C708DE691E00E94DA08CD2B69F50F3F1F4FF6
S1130C8051F58DE691E00E94340986E791E00E94D7
S1130C9034098FE791E00E94230382E891E00E94E7
S1130CA02303C5E8D1E0888599850E94940D1986AF
S1130CB018861B861A868C819D810E94940D1D8244
S1130CC01C821F821E82888199810E94940D198240
S1130CD018821B821A82DF91CF911F910F91089580
S1130CE00F931F93CF93DF93EC018B01198218822A
S1130CF01B821A8264E170E080E090E00E94790E29
S1130D00009741F09983888385E090E09B838A83F0
S1130D1081E001C080E0882301F180E090E085302B
S1130D209105D8F42A813B8182179307B0F49C0182
S1130D30220F331F220F331FE881F981E20FF31FC3
S1130D40D801A20FB31F4D915D916D917C914083A9
S1130D505183628373830196E2CFDF91CF911F9118
S1130D600F910895CF93DF93CDB7DEB7E0970FB619
S1130D70F894DEBF0FBECDBF84E1E2E3F1E0DE0113
S1130D80119601900D928A95E1F7BE016F5F7F4F36
S1130D90CE018D960E94700684E1E6E4F1E0DE0166
S1130DA0559601900D928A95E1F7BE016B5E7F4FD7
S1130DB0CE0189960E947006AE01475D5F4FBE0169
S1130DC0635D7F4F85E891E00E9469022AE037ED78
S1130DD043E25CE368EE73E085E891E00E948301FE
S1130DE060E875E280E090E00E9466070E94510589
S1130DF08DE691E00E94A6076CEB75E08FE791E029
S1130E000E94D4036BE275E086E791E00E945008EB
S1130E1064EB75E08DE691E00E9450088FE791E065
S1130E200E94A60386E090E00E94FB090E940E0A3D
S1130E3089A59AA50E94940D1AA619A61CA61BA6FC
S1130E408DA59EA50E94940D0E94070AFDCF6FEF09
S1130E507FEF81E090E00E94020608956FEF7FEF3C
S1130E6080E090E00E94020608950F93E82F2091FD
S1130E70C00030E040E050E060E070E080E090E0EE
S1130E8005E00E94CE0C217030E040E050E060E0CC
S1130E9070E080E090E0A0E00E94EA0C41F3E0936F
S1130EA0C6000F910895CF93DF93EC0188818823C6
S1130EB051F00E94350788818D3019F48AE00E9430
S1130EC035072196F3CFDF91CF91089520919901B1
S1130ED0211130C0E1ECF0E0208128602083E2ECB5
S1130EE0F0E0208122602083208124602083603808
S1130EF025E272078105910589F00E94800B20E0AC
S1130F0034E244E759E40E94320C20E030E040E04F
S1130F105FE30E94670A0E94510B02C067E670E01B
S1130F207093C5006093C4008DE08093C60081E097
S1130F30809399010895CF93DF93EB010E945307A7
S1130F40CE010E945307DF91CF9108950F93CF9361
S1130F50FC01789484819581A681B781892B8A2BA1
S1130F608B2BC1F0A081B18114960C911497129629
S1130F700D90BC91A02DCC9121E030E040E050E0F8
S1130F8060E070E080E090E00E94B30C2C2B2C9386
S1130F9081E08087CF910F9108950F93CF93DF93D2
S1130FA0DC01ED91FC9111970481C281D381E88128
S1130FB021E030E040E050E060E070E080E090E06C
S1130FC00E94B30C2095E223E88318961C92DF91CB
S1130FD0CF910F910895DC01ED91FC910190F08186
S1130FE0E02D10821182128213820E94A6070895B6
S1130FF00F931F93FC01A081B1810D90BC91A02D92
S11310000D911D912D913C911397448155816681D9
S11310107781041715072607370728F08085811183
S113102004C081E003C081E001C080E0811107C0F9
S11310301D921D921D921C92139781E001C080E0C5
S11310401F910F9108950F931F93CF93DF938C01FA
S1131050EB01209711F40E94CD072097A1F0BE0167
S113106080E090E00E94800B2FE632E143E05EE3F3
S11310700E94D80A20E030E040E05FE30E94670A63
S11310800E94510B03C060E070E0CB01F80164835F
S1131090758386839783DF91CF911F910F91089574
S11310A06115710569F0DC01ED91FC91E581F0E0D9
S11310B0EE0FFF1FE656FE4F7183608381E00895B3
S11310C080E008950F93FC016115710559F4809136
S11310D0AC0180FD68C082E085BD8CE291E0918323
S11310E080834CC06130710539F52091AC0130E04A
S11310F040E050E060E070E080E090E001E00E94B9
S1131100CE0C217030E040E050E060E070E080E020
S113111090E0A0E00E94EA0C09F047C08AE08093C6
S1131120810080E091E0909389008093880086E2BA
S113113091E09183808322C062307105F9F420919B
S1131140AC0130E040E050E060E070E080E090E02E
S113115002E00E94CE0C217030E040E050E060E0FC
S113116070E080E090E0A0E00E94EA0C01F582E0EB
S11311708093B10080E291E0918380830190F081BB
S1131180E02D0581ECEAF1E0A08121E030E040E0CF
S113119050E060E070E080E090E00E94B30C2A2B05
S11311A0208381E005C080E003C080E001C080E0CE
S11311B00F910895EF92FF921F93CF93DF93EC0169
S11311C07A01122F198218827B836A831C821D8202
S11311D01E821F8218860E946208B701CE010E94F7
S11311E02308112319F0CE010E94A607DF91CF91A5
S11311F01F91FF90EF9008950F93CF93DF93DC013D
S11312006115710521F415BC10926E0013C0613094
S1131210710549F41092810010928900109288009F
S113122010926F0007C06230710521F41092B10072
S113123010927000ED91FC9111970581CCEAD1E0F8
S1131240E88121E030E040E050E060E070E080E0E0
S113125090E00E94B30C2095E223E8831D921C9237
S1131260DF91CF910F910895CF93DF93EC016A81C1
S11312707B810E94FC08198218821B821A821C82BC
S11312801D821E821F821886DF91CF9108951F92BE
S11312900F920FB60F9211242F933F934F935F93A6
S11312A06F937F938F939F93AF93BF93EF93FF932A
S11312B08091A8019091A901A091AA01B091AB01DC
S11312C00196A11DB11D8093A8019093A901A0933B
S11312D0AA01B093AB01E0919A01F0919B01309780
S11312E009F00995FF91EF91BF91AF919F918F9173
S11312F07F916F915F914F913F912F910F900FBE0E
S11313000F901F9018951F920F920FB60F921124F1
S11313102F933F934F935F936F937F938F939F93F9
S1131320AF93BF93EF93FF938091A4019091A50194
S1131330A091A601B091A7010196A11DB11D8093B2
S1131340A4019093A501A093A601B093A701E091F5
S11313509C01F0919D01309709F00995FF91EF915F
S1131360BF91AF919F918F917F916F915F914F91B9
S11313703F912F910F900FBE0F901F9018951F92C1
S11313800F920FB60F9211242F933F934F935F93B5
S11313906F937F938F939F93AF93BF93EF93FF9339
S11313A08091A0019091A101A091A201B091A3010B
S11313B00196A11DB11D8093A0019093A101A0935A
S11313C0A201B093A301E0919E01F0919F01309797
S11313D009F00995FF91EF91BF91AF919F918F9182
S11313E07F916F915F914F913F912F910F900FBE1D
S11313F00F901F901895F894E0E6F0E090819061CA
S11314009083908198609083808378940895F89471
S1131410A89584B7877F84BF789408950E94070AAB
S1131420F894E0E6F0E080818061808380818860C8
S1131430808380818860808378940895CF93DF933C
S1131440EC010E94070A209721F0D093AE01C093CB
S1131450AD01F894E0E6F0E08081806180838081D2
S1131460886080838081806480837894DF91CF91C9
S113147008951F920F920FB60F9211242F933F934A
S11314804F935F936F937F938F939F93AF93BF9388
S1131490EF93FF9380E090E00E941E0AE091AD017B
S11314A0F091AE01309709F00995FF91EF91BF914A
S11314B0AF919F918F917F916F915F914F913F91E8
S11314C02F910F900FBE0F901F9018955058BB2767
S11314D0AA270E947E0A0C94F80B0E94EA0B38F0AB
S11314E00E94F10B20F039F49F3F19F426F40C9478
S11314F0E70B0EF4E095E7FB0C94E10BE92F0E9457
S1131500090C58F3BA17620773078407950720F08C
S113151079F4A6F50C942B0C0EF4E0950B2EBA2F4F
S1131520A02D0B01B90190010C01CA01A0011124E5
S1131530FF27591B99F0593F50F4503E68F11A1691
S1131540F040A22F232F342F4427585FF3CF469522
S113155037952795A795F0405395C9F77EF41F1644
S1131560BA0B620B730B840BBAF09150A1F0FF0F0E
S1131570BB1F661F771F881FC2F70EC0BA0F621FFA
S1131580731F841F48F4879577956795B795F795EA
S11315909E3F08F0B0CF9395880F08F09927EE0F7F
S11315A09795879508950E94BD0B08F481E00895EE
S11315B00E94EC0A0C94F80B0E94F10B58F00E9464
S11315C0EA0B40F029F45F3F29F00C94E10B511130
S11315D00C942C0C0C94E70B0E94090C68F39923CF
S11315E0B1F3552391F3951B550BBB27AA2762171B
S11315F07307840738F09F5F5F4F220F331F441F28
S1131600AA1FA9F335D00E2E3AF0E0E832D091505B
S11316105040E695001CCAF72BD0FE2F29D0660F48
S1131620771F881FBB1F261737074807AB07B0E88B
S113163009F0BB0B802DBF01FF2793585F4F3AF091
S11316409E3F510578F00C94E10B0C942C0C5F3FF9
S1131650E4F3983ED4F3869577956795B795F79517
S11316609F5FC9F7880F911D9695879597F90895FF
S1131670E1E0660F771F881FBB1F6217730784079B
S1131680BA0720F0621B730B840BBA0BEE1F88F7AA
S1131690E09508950E94510B6894B1110C942C0CA0
S11316A008950E94110C88F09F5798F0B92F99273C
S11316B0B751B0F0E1F0660F771F881F991F1AF039
S11316C0BA95C9F714C0B13091F00E942B0CB1E067
S11316D008950C942B0C672F782F8827B85F39F066
S11316E0B93FCCF3869577956795B395D9F73EF4D2
S11316F090958095709561957F4F8F4F9F4F08957A
S1131700E89409C097FB3EF4909580957095619597
S11317107F4F8F4F9F4F9923A9F0F92F96E9BB274D
S11317209395F695879577956795B795F111F8CFC9
S1131730FAF4BB0F11F460FF1BC06F5F7F4F8F4F34
S11317409F4F16C0882311F096E911C0772321F02A
S11317509EE8872F762F05C0662371F096E8862FC2
S113176070E060E02AF09A95660F771F881FDAF719
S1131770880F9695879597F90895990F0008550F46
S1131780AA0BE0E8FEEF16161706E807F907C0F003
S113179012161306E407F50798F0621B730B840B0B
S11317A0950B39F40A2661F0232B242B252B21F4E5
S11317B008950A2609F4A140A6958FEF811D811D85
S11317C0089597F99F6780E870E060E008959FEFBF
S11317D080EC089500240A941616170618060906C4
S11317E0089500240A941216130614060506089593
S11317F0092E0394000C11F4882352F0BB0F40F41B
S1131800BF2B11F460FF04C06F5F7F4F8F4F9F4F5A
S1131810089557FD9058440F551F59F05F3F71F0DC
S11318204795880F97FB991F61F09F3F79F0879543
S11318300895121613061406551FF2CF4695F1DFCC
S113184008C0161617061806991FF1CF869571055C
S1131850610508940895E894BB2766277727CB0190
S113186097F908950E94450C0C94F80B0E94EA0B1A
S113187038F00E94F10B20F0952311F00C94E10B49
S11318800C94E70B11240C942C0C0E94090C70F39B
S1131890959FC1F3950F50E0551F629FF001729F11
S11318A0BB27F00DB11D639FAA27F00DB11DAA1F20
S11318B0649F6627B00DA11D661F829F2227B00D6D
S11318C0A11D621F739FB00DA11D621F839FA00DF8
S11318D0611D221F749F3327A00D611D231F849F48
S11318E0600D211D822F762F6A2F11249F5750409F
S11318F09AF0F1F088234AF0EE0FFF1FBB1F661F1A
S1131900771F881F91505040A9F79E3F510580F0E2
S11319100C94E10B0C942C0C5F3FE4F3983ED4F34D
S1131920869577956795B795F795E7959F5FC1F786
S1131930FE2B880F911D9695879597F90895AA1BFC
S1131940BB1B51E107C0AA1FBB1FA617B70710F0A6
S1131950A61BB70B881F991F5A95A9F780959095D8
S1131960BC01CD0108950F93083090F0982F872F74
S1131970762F652F542F432F322F22270850F4CF70
S1131980220F331F441F551F661F771F881F991F7F
S11319900A95B2F70F91089597FB10F81694000872
S11319A00F93083098F00850232F342F452F562FCB
S11319B0672F782F892F902DF4CF059497958795CD
S11319C07795679557954795379527950A95AAF77B
S11319D00F9108950024A7FD00942A1730054005AF
S11319E0500560057005800590050895EE0FFF1FF2
S11319F00590F491E02D09940F931F93CF93DF93F7
S1131A008230910510F482E090E0E091B101F09110
S1131A10B20120E030E0A0E0B0E0309719F140815D
S1131A2051810281138148175907C8F0841795071B
S1131A3069F4109731F012960C93129713961C9335
S1131A4027C00093B1011093B20122C021153105C2
S1131A5019F04217530718F49A01BD01EF01DF0191
S1131A60F801DBCF21153105F9F0281B390B24309F
S1131A70310580F48A819B816115710521F0FB0198
S1131A809383828304C09093B2018093B101FE01D9
S1131A90329644C0FE01E20FF31F819391932250CA
S1131AA03109398328833AC02091AF013091B001C4
S1131AB0232B41F420910201309103013093B001B2
S1131AC02093AF01209100013091010121153105CE
S1131AD041F42DB73EB74091040150910501241BF8
S1131AE0350BE091AF01F091B001E217F307A0F4D8
S1131AF02E1B3F0B2817390778F0AC014E5F5F4F60
S1131B002417350748F04E0F5F1F5093B0014093E0
S1131B10AF018193919302C0E0E0F0E0CF01DF9147
S1131B20CF911F910F910895CF93DF93009709F4FC
S1131B3081C0FC01329713821282A091B101B0914D
S1131B40B201109781F420813181820F931F20917B
S1131B50AF013091B0012817390751F5F093B00166
S1131B60E093AF0167C0ED0120E030E0CE17DF075E
S1131B7040F44A815B819E0141155105F1F0EA016F
S1131B80F5CFD383C28340815181840F951FC81739
S1131B90D90759F488819981840F951F02969183FE
S1131BA080838A819B81938382832115310529F463
S1131BB0F093B201E093B1013DC0E901FB83EA83F4
S1131BC049915991C40FD51FEC17FD0761F4808129
S1131BD09181840F951F0296E901998388838281FC
S1131BE093819B838A83E0E0F0E012968D919C912F
S1131BF01397009719F0FD01DC01F7CF8D919C91AB
S1131C0011979D012E5F3F4F820F931F2091AF01CB
S1131C103091B0012817390769F4309729F41092EC
S1131C20B2011092B10102C013821282B093B001CA
S1131C30A093AF01DF91CF9108958F929F92AF92BD
S1131C40BF92CF92DF92EF92FF92CF93DF93EC019A
S1131C50688179818A819B8161157105810591056E
S1131C6021F464E279ED8BE597E02DE133EF41E077
S1131C7050E00E94FB1149015A019B01AC01A7EA03
S1131C80B1E40E941A126B017C01ACEEB4EFA50121
S1131C9094010E942812DC01CB018C0D9D1DAE1D08
S1131CA0BF1DB7FF03C00197A109B048888399837A
S1131CB0AA83BB839F77DF91CF91FF90EF90DF9052
S1131CC0CF90BF90AF909F908F9008950E941D0E6B
S1131CD0089586E091E00E941D0E0895A0E0B0E012
S1131CE08093060190930701A0930801B093090122
S1131CF00895A0E0B0E0EFE7FEE00C943112EC01AF
S1131D00009721F4CB010E94FC0CB4C0FC01E60F47
S1131D10F71F9C0122503109E217F30708F4A8C009
S1131D20D9010D911C91119706171707B0F00530D2
S1131D30110508F49BC0C80104978617970708F497
S1131D4095C002501109061B170B019311936D9353
S1131D507C93CF010E94940D89C05B01A01AB10A43
S1131D604C01800E911EA091B101B091B201612C81
S1131D70712CE12CF12C109709F446C08D919C91A3
S1131D801197A815B905B1F56C0142E0C40ED11C38
S1131D90CA14DB0478F14C018A189B08640142E000
S1131DA0C40ED11C1296BC9012971396AC91B5E058
S1131DB0CB16D10440F0B282A38391828082D901F0
S1131DC06D937C9309C00E5F1F4F800F911FF90123
S1131DD091838083EB2DFA2FE114F10431F0D701C4
S1131DE01396FC93EE93129741C0F093B201E093E3
S1131DF0B1013CC06816790608F43C017D011296D5
S1131E000D90BC91A02DB7CF8091AF019091B001FE
S1131E1088169906E1F466167706C8F480910001E5
S1131E2090910101009741F48DB79EB74091040150
S1131E3050910501841B950BE817F907C8F4F0933A
S1131E40B001E093AF01F901718360830FC0CB014E
S1131E500E94FC0C7C01009759F0A801BE010E946D
S1131E603F0FCE010E94940DC70104C0CE0102C0F1
S1131E7080E090E0CDB7DEB7EEE00C944D12FB01AC
S1131E80DC0102C001900D9241505040D8F70895F2
S1131E90AEE0B0E0EEE4FFE00C943B120D891E8945
S1131EA086E08C831A8309838FEF9FE79E838D835B
S1131EB0AE01475E5F4F6F89788DCE0101960E9417
S1131EC06A0FEF81F885E00FF11F10822E96E4E08F
S1131ED00C945712ABE0B0E0E0E7FFE00C942D1255
S1131EE06C017B018A01FC0117821682838181FFC8
S1131EF0CCC1CE0101963C01F6019381F70193FD1B
S1131F00859193FF81917F01882309F4BAC18532B9
S1131F1039F493FD859193FF81917F01853229F4F2
S1131F20B60190E00E946111E7CF912C212C312C55
S1131F30FFE1F315D8F08B3279F038F4803279F080
S1131F408332A1F4232D20611DC08D3261F08033D2
S1131F5069F4232D216016C0832D8260382EE32D71
S1131F60E4603E2E2AC0F32DF8601DC037FC2DC05E
S1131F7020ED280F2A3040F08E32B9F436FC81C1AE
S1131F80232D2064322E19C036FE06C08AE0989EA6
S1131F90200D1124922E11C0EAE02E9E200D112452
S1131FA0222EF32DF0623F2E08C08C3621F4832DAF
S1131FB08068382E02C0883641F4F70193FD85917C
S1131FC093FF81917F018111B3CF982F9F7D955409
S1131FD0933028F40C5F1F4F9FE399830DC0833621
S1131FE031F0833771F0833509F059C021C0F8010D
S1131FF0808189830E5F1F4F88248394912C530121
S113200013C02801F2E04F0E511CF801A080B180EA
S113201036FE03C0692D70E002C06FEF7FEFC5018B
S11320200E9456114C018201F32DFF773F2E16C0FA
S1132030280122E0420E511CF801A080B18036FE36
S113204003C0692D70E002C06FEF7FEFC5010E94ED
S11320504B114C01F32DF0683F2E820133FC1BC061
S1132060822D90E088169906B0F4B60180E290E0E3
S11320700E9461112A94F4CFF50137FC859137FE53
S113208081915F01B60190E00E94611121102A94B0
S113209021E0821A91088114910471F7E8C0843612
S11320A011F0893641F5F80137FE07C0608171816E
S11320B0828193810C5F1F4F08C060817181072E5C
S11320C0000C880B990B0E5F1F4FF32DFF763F2EEC
S11320D097FF09C090958095709561957F4F8F4FBC
S11320E09F4FF0683F2E2AE030E0A3010E949D112B
S11320F0882E861845C0853731F4232D2F7EB22EC5
S11321002AE030E025C0932D997FB92E8F36C1F097
S113211018F4883579F0B5C0803719F0883721F084
S1132120B0C0E92FE061BE2EB4FE0DC0FB2DF460FB
S1132130BF2E09C034FE0AC0292F2660B22E06C065
S113214028E030E005C020E130E002C020E132E0C8
S1132150F801B7FE07C060817181828193810C5FB1
S11321601F4F06C06081718180E090E00E5F1F4FB9
S1132170A3010E949D11882E8618FB2DFF773F2E08
S113218036FE0DC0232D2E7FA22E891458F434FE62
S11321900BC032FC09C0832D8E7EA82E05C0B82C3E
S11321A0A32C03C0B82C01C0B92CA4FE0FC0FE019F
S11321B0E80DF11D8081803321F49A2D997EA92E9A
S11321C009C0A2FE06C0B394B39404C08A2D8678D5
S11321D009F0B394A3FC11C0A0FE06C0B21488F4A5
S11321E0280C922C9B180EC0B21460F4B60180E245
S11321F090E00E946111B394F7CFB21418F42B1835
S113220002C0982C212CA4FE10C0B60180E390E0FB
S11322100E946111A2FE17C0A1FC03C088E790E0F0
S113222002C088E590E0B6010CC08A2D867859F08A
S1132230A1FE02C08BE201C080E2A7FC8DE2B601E0
S113224090E00E946111891438F4B60180E390E0B3
S11322500E9461119A94F7CF8A94F301E80DF11D5D
S11322608081B60190E00E9461118110F5CF222097
S113227009F442CEB60180E290E00E9461112A94F2
S1132280F6CFF6018681978102C08FEF9FEF2B96E0
S1132290E2E10C944912FC01059061507040011078
S11322A0D8F7809590958E0F9F1F0895FC0161507B
S11322B0704001900110D8F7809590958E0F9F1F64
S11322C008950F931F93CF93DF93FB01238121FD87
S11322D003C08FEF9FEF2CC022FF16C046815781A9
S11322E0248135814217530744F4A081B1819D01B3
S11322F02F5F3F4F318320838C93268137812F5F5B
S11323003F4F3783268314C08B01EC01FB0100840B
S1132310F185E02D0995892BE1F6D80116968D916A
S11323209C911797019617969C938E931697CE01BE
S1132330DF91CF911F910F910895FA01AA272830B8
S113234051F1203181F1E8946F936E7F6E5F7F4F7E
S11323508F4F9F4FAF4FB1E03ED0B4E03CD0670FFA
S1132360781F891F9A1FA11D680F791F8A1F911D4D
S1132370A11D6A0F711D811D911DA11D20D009F49D
S113238068943F912AE0269F11243019305D3193DF
S1132390DEF6CF010895462F4770405D4193B3E0C8
S11323A00FD0C9F7F6CF462F4F70405D4A3318F06F
S11323B0495D31FD4052419302D0A9F7EACFB4E020
S11323C0A6959795879577956795BA95C9F70097D8
S11323D06105710508959B01AC010A2E0694579579
S11323E0479537952795BA95C9F7620F731F841FD0
S11323F0951FA01D0895052E97FB1EF400940E94BE
S1132400121257FD07D00E94641207FC03D04EF449
S11324100C94121250954095309521953F4F4F4F93
S11324205F4F089590958095709561957F4F8F4F7C
S11324309F4F08950E948612A59F900DB49F900D02
S1132440A49F800D911D11240895B7FF0C941A12B6
S11324500E941A12821B930B08952F923F924F925F
S11324605F926F927F928F929F92AF92BF92CF9220
S1132470DF92EF92FF920F931F93CF93DF93CDB729
S1132480DEB7CA1BDB0B0FB6F894DEBF0FBECDBFA1
S113249009942A88398848885F846E847D848C8472
S11324A09B84AA84B984C884DF80EE80FD800C817B
S11324B01B81AA81B981CE0FD11D0FB6F894DEBF5E
S11324C00FBECDBFED010895A1E21A2EAA1BBB1BBE
S11324D0FD010DC0AA1FBB1FEE1FFF1FA217B307EC
S11324E0E407F50720F0A21BB30BE40BF50B661F02
S11324F0771F881F991F1A9469F7609570958095C6
S113250090959B01AC01BD01CF010895A29FB0013C
S1132510B39FC001A39F700D811D1124911DB29F13
S1132520700D811D1124911D089510E0C5E3D0E0C4
S113253004C0FE010E94F60C2196C633D107C9F7E8
S1072540F894FFCF39
S11325440000B7012000010000002A002B0029002C
S11325546D000202002400250023006B000000002B
S1132564A00170000002A4016F000101A8016E0023
S11325740000000000000000803F00000040000054
S1132584404000008040000048C20000484200006F
S1132594164300007A430000AF4354656D703A203B
S10725A425640A009C
S9030000FC
